{"abi":[{"type":"constructor","inputs":[],"stateMutability":"nonpayable"},{"type":"function","name":"allowance","inputs":[{"name":"owner","type":"address","internalType":"address"},{"name":"spender","type":"address","internalType":"address"}],"outputs":[{"name":"","type":"uint256","internalType":"uint256"}],"stateMutability":"view"},{"type":"function","name":"approve","inputs":[{"name":"spender","type":"address","internalType":"address"},{"name":"value","type":"uint256","internalType":"uint256"}],"outputs":[{"name":"","type":"bool","internalType":"bool"}],"stateMutability":"nonpayable"},{"type":"function","name":"balanceOf","inputs":[{"name":"account","type":"address","internalType":"address"}],"outputs":[{"name":"","type":"uint256","internalType":"uint256"}],"stateMutability":"view"},{"type":"function","name":"claimTokens","inputs":[],"outputs":[],"stateMutability":"nonpayable"},{"type":"function","name":"claimed","inputs":[{"name":"account","type":"address","internalType":"address"}],"outputs":[{"name":"","type":"bool","internalType":"bool"}],"stateMutability":"view"},{"type":"function","name":"decimals","inputs":[],"outputs":[{"name":"","type":"uint8","internalType":"uint8"}],"stateMutability":"view"},{"type":"function","name":"name","inputs":[],"outputs":[{"name":"","type":"string","internalType":"string"}],"stateMutability":"view"},{"type":"function","name":"symbol","inputs":[],"outputs":[{"name":"","type":"string","internalType":"string"}],"stateMutability":"view"},{"type":"function","name":"totalSupply","inputs":[],"outputs":[{"name":"","type":"uint256","internalType":"uint256"}],"stateMutability":"view"},{"type":"function","name":"transfer","inputs":[{"name":"to","type":"address","internalType":"address"},{"name":"value","type":"uint256","internalType":"uint256"}],"outputs":[{"name":"","type":"bool","internalType":"bool"}],"stateMutability":"nonpayable"},{"type":"function","name":"transferFrom","inputs":[{"name":"from","type":"address","internalType":"address"},{"name":"to","type":"address","internalType":"address"},{"name":"value","type":"uint256","internalType":"uint256"}],"outputs":[{"name":"","type":"bool","internalType":"bool"}],"stateMutability":"nonpayable"},{"type":"event","name":"Approval","inputs":[{"name":"owner","type":"address","indexed":false,"internalType":"address"},{"name":"spender","type":"address","indexed":false,"internalType":"address"},{"name":"value","type":"uint256","indexed":false,"internalType":"uint256"}],"anonymous":false},{"type":"event","name":"Transfer","inputs":[{"name":"from","type":"address","indexed":false,"internalType":"address"},{"name":"to","type":"address","indexed":false,"internalType":"address"},{"name":"value","type":"uint256","indexed":false,"internalType":"uint256"}],"anonymous":false},{"type":"error","name":"ERC20InsufficientAllowance","inputs":[{"name":"spender","type":"address","internalType":"address"},{"name":"currentAllowance","type":"uint256","internalType":"uint256"},{"name":"value","type":"uint256","internalType":"uint256"}]},{"type":"error","name":"ERC20InsufficientBalance","inputs":[{"name":"from","type":"address","internalType":"address"},{"name":"fromBalance","type":"uint256","internalType":"uint256"},{"name":"value","type":"uint256","internalType":"uint256"}]},{"type":"error","name":"ERC20InvalidApprover","inputs":[{"name":"approver","type":"address","internalType":"address"}]},{"type":"error","name":"ERC20InvalidReceiver","inputs":[{"name":"receiver","type":"address","internalType":"address"}]},{"type":"error","name":"ERC20InvalidSender","inputs":[{"name":"sender","type":"address","internalType":"address"}]},{"type":"error","name":"ERC20InvalidSpender","inputs":[{"name":"spender","type":"address","internalType":"address"}]},{"type":"error","name":"TokenAlreadyClaimed","inputs":[{"name":"receiver","type":"address","internalType":"address"}]}],"bytecode":{"object":"0x608060405234801561000f575f80fd5b5060408051808201909152600a8152694749562041636365737360b01b60208201525f9061003d9082610112565b5060408051808201909152600381526223a4ab60e91b60208201526001906100659082610112565b506003805460ff191660121790556101cd565b634e487b7160e01b5f52604160045260245ffd5b600181811c908216806100a057607f821691505b6020821081036100be57634e487b7160e01b5f52602260045260245ffd5b50919050565b601f82111561010d575f81815260208120601f850160051c810160208610156100ea5750805b601f850160051c820191505b81811015610109578281556001016100f6565b5050505b505050565b81516001600160401b0381111561012b5761012b610078565b61013f81610139845461008c565b846100c4565b602080601f831160018114610172575f841561015b5750858301515b5f19600386901b1c1916600185901b178555610109565b5f85815260208120601f198616915b828110156101a057888601518255948401946001909101908401610181565b50858210156101bd57878501515f19600388901b60f8161c191681555b5050505050600190811b01905550565b610860806101da5f395ff3fe608060405234801561000f575f80fd5b50600436106100a6575f3560e01c806348c54b9d1161006e57806348c54b9d1461012557806370a082311461012f57806395d89b4114610157578063a9059cbb1461015f578063c884ef8314610172578063dd62ed3e14610194575f80fd5b806306fdde03146100aa578063095ea7b3146100c857806318160ddd146100eb57806323b872dd146100fd578063313ce56714610110575b5f80fd5b6100b26101cc565b6040516100bf91906106a0565b60405180910390f35b6100db6100d6366004610706565b61025b565b60405190151581526020016100bf565b6002545b6040519081526020016100bf565b6100db61010b36600461072e565b610274565b60035460405160ff90911681526020016100bf565b61012d610297565b005b6100ef61013d366004610767565b6001600160a01b03165f9081526004602052604090205490565b6100b261034e565b6100db61016d366004610706565b61035d565b6100db610180366004610767565b60066020525f908152604090205460ff1681565b6100ef6101a2366004610787565b6001600160a01b039182165f90815260056020908152604080832093909416825291909152205490565b60605f80546101da906107b8565b80601f0160208091040260200160405190810160405280929190818152602001828054610206906107b8565b80156102515780601f1061022857610100808354040283529160200191610251565b820191905f5260205f20905b81548152906001019060200180831161023457829003601f168201915b5050505050905090565b5f3361026881858561036a565b60019150505b92915050565b5f3361028185828561048c565b61028c858585610505565b506001949350505050565b335f8181526006602052604090205460ff16610309576001600160a01b0381165f908152600460205260408120805468056bc75e2d6310000092906102dd908490610804565b9250508190555068056bc75e2d6310000060025f8282546102fe9190610804565b909155506103329050565b60405163db339ac760e01b81526001600160a01b03821660048201526024015b60405180910390fd5b50335f908152600660205260409020805460ff19166001179055565b6060600180546101da906107b8565b5f33610268818585610505565b6001600160a01b0383166103935760405163e602df0560e01b81525f6004820152602401610329565b6001600160a01b0382166103bc57604051634a1406b160e11b81525f6004820152602401610329565b6001600160a01b0383165f9081526004602052604090205481111561041e576001600160a01b0383165f8181526004602081905260409182902054915163391434e360e21b815290810192909252602482015260448101829052606401610329565b6001600160a01b038381165f8181526005602090815260408083209487168084529482529182902085905581519283528201929092529081018290527f8c5be1e5ebec7d5bd14f71427d1e84f3dd0314c0f7b2291e5b200ac8c7c3b9259060600160405180910390a1505050565b6001600160a01b038381165f90815260056020908152604080832093861683529290522054818110156104eb57604051637dc7a0d960e11b81526001600160a01b03841660048201526024810182905260448101839052606401610329565b6104ff84846104fa8585610817565b61036a565b50505050565b6001600160a01b03831661052e57604051634b637e8f60e11b81525f6004820152602401610329565b6001600160a01b0382166105575760405163ec442f0560e01b81525f6004820152602401610329565b610562838383610567565b505050565b6001600160a01b03831661059057604051634b637e8f60e11b81525f6004820152602401610329565b6001600160a01b0382166105b95760405163ec442f0560e01b81525f6004820152602401610329565b6001600160a01b0383165f908152600460205260409020548181101561060b5760405163391434e360e21b81526001600160a01b03851660048201526024810182905260448101839052606401610329565b6106158282610817565b6001600160a01b038086165f90815260046020526040808220939093559085168152908120805484929061064a908490610804565b9091555050604080516001600160a01b038087168252851660208201529081018390527fddf252ad1be2c89b69c2b068fc378daa952ba7f163c4a11628f55a4df523b3ef9060600160405180910390a150505050565b5f6020808352835180828501525f5b818110156106cb578581018301518582016040015282016106af565b505f604082860101526040601f19601f8301168501019250505092915050565b80356001600160a01b0381168114610701575f80fd5b919050565b5f8060408385031215610717575f80fd5b610720836106eb565b946020939093013593505050565b5f805f60608486031215610740575f80fd5b610749846106eb565b9250610757602085016106eb565b9150604084013590509250925092565b5f60208284031215610777575f80fd5b610780826106eb565b9392505050565b5f8060408385031215610798575f80fd5b6107a1836106eb565b91506107af602084016106eb565b90509250929050565b600181811c908216806107cc57607f821691505b6020821081036107ea57634e487b7160e01b5f52602260045260245ffd5b50919050565b634e487b7160e01b5f52601160045260245ffd5b8082018082111561026e5761026e6107f0565b8181038181111561026e5761026e6107f056fea2646970667358221220dca51fe47411c8a4987687d20c031dcfc29552cc93ab8c730a065ba0c5d30bc364736f6c63430008140033","linkReferences":{}},"methodIdentifiers":{"allowance(address,address)":"dd62ed3e","approve(address,uint256)":"095ea7b3","balanceOf(address)":"70a08231","claimTokens()":"48c54b9d","claimed(address)":"c884ef83","decimals()":"313ce567","name()":"06fdde03","symbol()":"95d89b41","totalSupply()":"18160ddd","transfer(address,uint256)":"a9059cbb","transferFrom(address,address,uint256)":"23b872dd"},"id":20}